S0170000636F6E6E6563745F736F635F73696E6B2E7333373B
S31508000000002000209532000807C8010807C8010823
S3150800001043EE010807C8010807C8010807C8010810
S3150800002007C8010807C8010807C8010807C8010862
S3150800003007C8010807C8010807C8010807C8010852
S3150800004007C8010807C8010807C8010807C8010842
S3150800005007C8010807C8010807C8010807C8010832
S3150800006007C8010807C8010807C80108AD2F000816
S315080000709D2F000807C8010807C8010807C8010816
S3150800008007C8010807C8010807C8010807C8010802
S3150800009007C8010807C801086D3B000807C801081A
S315080000A007C8010807C8010807C8010807C80108E2
S315080000B007C8010807C801081596010881A00108A4
S315080000C09F2202089B22020851980108AB220208C7
S315080000D0A322020855A00108A7220208E5A00108E4
S315080000E021A1010807C8010807C80108FDA20008E0
S315080000F007C8010825E7010807C8010807C8010855
S3150800010007C8010807C8010807C8010807C8010881
S3150800011007C8010807C8010807C8010807C8010871
S3150800012007C8010807C8010807C8010807C8010861
S3150800013007C8010807C8010807C8010807C8010851
S3150800014007C8010807C8010807C8010807C8010841
S3150800015007C8010807C80108ADEF0108BD7E0108F8
S3150800016007C8010807C80108F9210208FF21020883
S31508000170194A5AB3194BDB6913F0040F29D110B485
S315080001800AE003EA00048C4210D0013AB2B1134BDC
S31508000190DB6913F0040F14D110F0010FF1D1104CE4
S315080001A01C40002CEDD06FF001000CE00C4A1A4000
S315080001B00AB9002007E06FF0010004E06FF00200C2
S315080001C001E04FF0FF305DF8044B70476FF0020016
S315080001D070474FF0FF307047809698000000035034
S315080001E0020001000D4BDB6913F4803F12D170B594
S315080001F00A4B03F580560124F46003F500552C6478
S315080002004FF480721A6100212046FFF7B1FF34646B
S31508000210EC6070BD6FF00100704700BF000003502E
S3150800022010B5124B4FF480329A6603F51C33DC691D
S31508000230144041F67132DA6303F580520121D16028
S31508000240586102221A6100212120FFF791FF40B16F
S31508000250074B0122DA601CB1A3F500530022DA63CA
S3150800026010BD00212120FFF783FFF1E70090005021
S315080002700020035038B51A4B5861DB6913F0040F98
S315080002802AD10C4654F8041B154B9961151F06E034
S31508000290214651F8042B124B9A61043D0C465DB178
S315080002A008210846FFF764FF03460028F0D00C4AE9
S315080002B004211161184638BD094B04221A61002130
S315080002C02120FFF755FF03460028F3D100212120FE
S315080002D0FFF74EFF0346EDE74FF0FF33EAE700BFAF
S315080002E0000003502DE9F0410F46164605461A4B05
S315080002F04FF480329A6603F51C33DA6902F48038C3
S3150800030041F67132DA6303F580530122DA6000237D
S3150800031002E025442744361B8EB105F5005424F423
S31508000320FF5424F01F04641BB44228BF34462246F7
S3150800033039462846FFF79EFF03460028E9D0074AB4
S315080003400121D160B8F1000F03D0A2F500520021B7
S31508000350D1631846BDE8F081009000500020035094
S31508000360013800D0FCE770472DE9F04F2DED028BE0
S3150800037093B082460C4693461D4657EC106B8DED9E
S31508000380080B32463B46304639461AF09DFB002894
S3150800039000F009814FF0FF32B14B304639461AF06A
S315080003A0BBFB002840F0FF804FF0FF326FF480134C
S315080003B0304639461AF092FB002840F0F4800022B5
S315080003C00023DDE90867304639461AF087FB00281E
S315080003D040F0FC809DED087B8DED067B209B13F499
S315080003E08063119301D106231E93DDE906010246B7
S315080003F0C1F30A50C1F31303904643F07F5949F4F9
S315080004004019A0F2FF301AF08DF883A3D3E9002330
S315080004101AF0F2F882A3D3E9002319F037FF06464B
S315080004200F4600228F4B4046494619F02DFF7EA302
S31508000430D3E900231AF0E0F802460B46304639465F
S3150800044019F024FF1AF072FB06461AF06BF880467C
S31508000450894677A3D3E900231AF0CEF80022824B07
S3150800046019F014FF1AF062FB074673A3D3E90023B9
S31508000470404649461AF0C0F88046894638461AF07A
S3150800048051F86FA3D3E900231AF0B6F802460B46D3
S315080004904046494619F0F8FE8046894602460B460C
S315080004A01AF0AAF8CDE90C0107F2FF37002100225D
S315080004B0CDE90A123B050B9300230A9342464B46A5
S315080004C04046494619F0E2FECDE90E0142464B4642
S315080004D000204FF0804119F0D7FE80468946002259
S315080004E0624BDDE90C011AF0B1F90022604B19F0F4
S315080004F0CDFE02460B46DDE90C011AF0A7F90022EB
S315080005005C4B19F0C3FE02460B46DDE90C011AF0F6
S315080005109DF902460B464046494619F0B7FE024683
S315080005200B46DDE90E011AF091F90022524B19F03B
S31508000530ADFEDDE90A231AF05FF88046894649ECE4
S31508000540188BDDE906231AF0E7FA40B1013E0022CE
S31508000550474B404649461AF079F941EC180B06F123
S315080005606303C62B3BD80427209B13F4006F40D0A7
S3150800057035A3D3E90023DDE90689404649461AF042
S31508000580C1FA00283BD032A3D3E9002340464946A6
S315080005901AF0A4FA002832D01E9BB34221DD9E1B16
S315080005A0731E1E931FE0209B02931F9B01931E9BA5
S315080005B000939DED080B2B465A462146504600F0FF
S315080005C0CBF813B0BDEC028BBDE8F08F9FED227B14
S315080005D08DED067B069607F100430793FEE6052791
S315080005E0C2E700231E93209B43F4806320930027D1
S315080005F03E461F9B9F4241D2A3EB070840E01E9B45
S31508000600002BF6D0119B002BF3D01E9B013B1E93AB
S31508000610EFE700BFAFF30080FB799F501344D33F49
S31508000620B3C8608B288AC63F61436F63A787D23FEA
S3150800063071A379094F930A401655B5BBB16B0240B1
S31508000640EF39FAFE422EE63F2D431CEBE2361A3FFF
S315080006500000000080842E41000000000000000019
S31508000660FFFFEF7F0000F83F0000E03F00002C404E
S3150800067000002440000018400000F03F4FF000083A
S31508000680209B13F0020902D00FB14FF000083EB1CB
S3150800069053EC182BDDE906011AF0D8F8CDE9060166
S315080006A000220023DDE908011AF018FA00283BD1D8
S315080006B0209B23F400630293CDF804801E9B0093CD
S315080006C09DED060B2B465A462146504600F044F847
S315080006D0002F3FF476AF209B13F0200F2CD04FF05D
S315080006E0450C00F101082B46024621466046D047D4
S315080006F086EAE672A2EBE67205230593013F0497A4
S31508000700002303930A230293F30F019300922B46C7
S315080007104246214650461FF07BFDB9F1000F3FF4D3
S3150800072050AF02461F9F10E0DDE90601024601F1BF
S315080007300043CDE90623BBE74FF0650CD1E7561C0D
S315080007402B4621462020D0473246A2EB0B03BB425C
S31508000750F5D3104635E700BF2DE9F04F2DED028B96
S3150800076093B00590089192469B4659EC108B1E9DB6
S3150800077042464B46404649461AF0A6F9002840D05C
S315080007804FF0FF326FF48013404649461AF0A6F937
S31508000790002845D14FF0FF32B14B404649461AF082
S315080007A0BBF900284BD1AAA3D3E900234046494602
S315080007B01AF0B2F900285AD1A7A3D3E90023404674
S315080007C049461AF08BF9002851D1002200234046E9
S315080007D049461AF083F9002857D100230993209B2C
S315080007E013F4806F5CD000241F2C5BD8092D59D9CF
S315080007F004F148036B44302203F8202C013D0134F0
S31508000800F2E7209B03931F9B029303230193954BC7
S3150800081000935B465246089905981FF01FFC10E1A5
S31508000820209B03931F9B0293042301938E4B0093F3
S315080008305B465246089905981FF010FC01E1209B7B
S3150800084013F004030FD0894A7BB10423209903913E
S315080008501F990291019300925B46524608990598A2
S315080008601FF0FCFBEDE0824AEEE70323EEE7209B50
S3150800087002931F9B0193009549EC108B5B465246E9
S3150800088008990598FFF770FDDBE042464B460020C5
S31508000890002119F0F9FC80468946012309939EE751
S315080008A00625A0E7404649461AF040F9064619F0DB
S315080008B039FE02460B464046494619F0E5FC6D4BA3
S315080008C003EBC50393ED008B53EC182B19F094FE3C
S315080008D002460B46CDE906231AF050F9074619F0E9
S315080008E011FE02460B46DDE9060119F0CDFC02466B
S315080008F00B46CDE9062300225F4B1AF00DF950B3DB
S315080009000137384619F0FEFD02460B4651EC180B26
S315080009101AF0EEF808B10136002755BB304619F033
S3150800092001FE02460B464046494619F0ADFC804694
S3150800093089460022504B1AF0D1F838B100224E4BA6
S31508000940404649461AF0E8F8002842D016F0010F4A
S315080009503FD001363DE00022474BDDE906011AF09B
S31508000960BDF80028D9D117B117F0010FD5D0013736
S31508000970D3E71F2C17D8013D404BA3FB0723DB0801
S31508000980194603EB8303A7EB4303621C303304F1D8
S3150800099048000DEB000404F8203C092F02D90F4645
S315080009A01446E6E714461F2C0AD86B1E45B104F117
S315080009B048026A44302102F8201C1D460134F2E739
S315080009C01F2C06D804F148036B442E2203F8202C6A
S315080009D001341F2C17D82A4A82FB0632F317C3EBB9
S315080009E0A2031A4603EB8303A6EB4303611C3033C9
S315080009F004F148000DEB000404F8203C16460AB141
S31508000A000C46E6E70C46209B03F00303012B39D07E
S31508000A101F2C09D8099B002B51D004F148036B44BD
S31508000A202D2203F8202C0134209B03931F9B02934D
S31508000A3001940AAB00935B465246089905981FF045
S31508000A400DFB13B0BDEC028BBDE8F08FAFF3008051
S31508000A500000000065CDCD410000000065CDCDC188
S31508000A60FFFFEF7F10420208144202080442020800
S31508000A700C420208204202080000E03FCDCCCCCC54
S31508000A80676666661F9BB3B1099B1BB9209B13F06B
S31508000A900C0F12D01F9B013B1F93194606E004F169
S31508000AA048036B44302203F8202C01348C42AFD221
S31508000AB01F2CF4D9ACE71F99F8E71F99F6E7209B96
S31508000AC013F0040F07D004F148036B442B2203F8F4
S31508000AD0202C0134A8E7209B13F0080FA4D004F1BA
S31508000AE048036B44202203F8202C01349CE700BFFE
S31508000AF07FB54E6802A9044620F0BCFE9DF8083072
S31508000B000C2B19D1134BB3F90050134B9E4218D82E
S31508000B1004F014FF03460068694600909B88204647
S31508000B20ADF8043020F093FE70B140F21C620B4918
S31508000B300B480AF0FBFBFEE7204612F029FC0546A7
S31508000B40E3E71CF0D1FAE5E72946204620F094FEB3
S31508000B5004B070BD7A4A0020FFC99A3B6D45020869
S31508000B609442020838B50D4604461BF070FE064A44
S31508000B7013889BB22DB123431380BDE838401BF080
S31508000B806CBE23EA0403F7E7A44400200022034BC3
S31508000B9001214FF480709A70E4E700BFA444002056
S31508000BA07FB50023CDE901330393FF238DF8043085
S31508000BB01BF04DFE0F4C0546228863880E4E9A425E
S31508000BC00DD06188706801AA218020F003FD58B114
S31508000BD040F2976209490A480AF0A8FBFEE77068DE
S31508000BE020F0CEFC0128ECD028461BF036FE04B0D7
S31508000BF070BD00BF2C4E0020A44400206D4502089D
S31508000C009442020838B50F4CA56835B940F27C7293
S31508000C100D490E480AF08AFBFEE71FF0CEFB284472
S31508000C200DF0FCFF00F00700032809D1A46809218C
S31508000C3020461FF0DEFC205C031F5842584138BD91
S31508000C400020FCE7A44400206D45020894420208EF
S31508000C5010B5114CA378042B06D040F244520F4924
S31508000C600F480AF063FBFEE723881B0706D440F209
S31508000C7045520A490A480AF059FBFEE700210820AE
S31508000C80FFF770FF0222074B60681A7112F074F9B9
S31508000C90BDE810401EF002BBA44400206D450208C2
S31508000CA0944202082C4E002010B5084C606812F0D9
S31508000CB063F9606820F064FC012806D001226068A8
S31508000CC01146BDE8104020F05DBC10BDA4440020CC
S31508000CD038B5194DAB7833B14FF4DC62174918486B
S31508000CE00AF024FBFEE71BF0B2FD2988044611F042
S31508000CF0060109D001214FF48070FFF733FF204623
S31508000D00BDE838401BF0A9BD4FF48070FFF72AFFF5
S31508000D100FF018FD012805D010F0FD0F05D1FFF7DB
S31508000D203FFFECE7FFF7C0FFE9E740F2F662034949
S31508000D3003480AF0FBFAFEE7A44400206D450208C2
S31508000D409442020870B50446064D95F90C60FFF703
S31508000D50BFFF0FF0F7FB31462046AA68BDE8704092
S31508000D600FF02EBAA444002008B50A4B1B88DB06F0
S31508000D7006D440F26952084908480AF0D7FAFEE74D
S31508000D8000211020FFF7EEFE0FF058FDBDE80840E1
S31508000D901EF084BAA44400206D4502089442020855
S31508000DA00D4B10B51B8804469B0713D5002102205E
S31508000DB0FFF7D8FE094B5A79FF2A06D040F29A4225
S31508000DC0074908480AF0B2FAFEE75C71BDE8104028
S31508000DD01EF064BA10BD00BFA44400202C4E0020AB
S31508000DE06D450208944202087047704710B50E4CCC
S31508000DF0A37833B140F2C5120C490D480AF096FAA9
S31508000E00FEE7A06019B1A17C003918BF0121202096
S31508000E10FFF7A8FE074B08489B7923770223A370A0
S31508000E20BDE810400CF05EBDA44400206D450208E4
S31508000E30944202082C4E0020C444002008B50DF048
S31508000E4059FB80F00100C0B208BD0A4B9A780AB176
S31508000E50062A0CD11B8803F48B7343B9064B5A79BF
S31508000E60FF2A04D11879FF3818BF012070470120DE
S31508000E70704700BFA44400202C4E002008B50DF092
S31508000E8029FB0028FBD108BD0C4B42881A82427800
S31508000E909A740278DA7482889A82C288DA82C26878
S31508000EA09A61017A064A9171028A198D914204D093
S31508000EB001214FF400701A8554E67047A4440020B7
S31508000EC02C4E0020094B1A8A42809A7C4270DA7CA2
S31508000ED002709A8A8280DA8AC2809A691B8DC260F9
S31508000EE0034A038292790272704700BFA444002025
S31508000EF02C4E00204B1E012B70B50C4606D94FF41C
S31508000F002A721A491A480AF011FAFEE7194D0A46D2
S31508000F100146686820F0C9FD30B140F2AA2213499B
S31508000F2013480AF003FAFEE76E680CF04FFC2246F7
S31508000F300146304620F0B3FD30B140F2AE220B49EF
S31508000F400B480AF0F3F9FEE76D680CF04BFC2246F5
S31508000F500146284620F0AFFD30B140F2B2220349DF
S31508000F6003480AF0E3F9FEE770BD00BF6D450208C5
S31508000F7094420208A4440020054BDB791B0913F0B0
S31508000F800E0003D0052B8CBF00200120704700BF40
S31508000F902C4E0020044BDB791B0913F00E0F0CBFF7
S31508000FA001200020704700BF2C4E00202DE9F04F8D
S31508000FB016469A0581461F4691B003D50121802021
S31508000FC0FFF7D0FDF3014FF0000852D59A4C23885D
S31508000FD09D074ED5994D6B79FF2B06D040F2664298
S31508000FE0974998480AF0A2F9FEE7A36833B940F290
S31508000FF06742934993480AF099F9FEE74146022069
S31508001000FFF7B0FDA37885F80580042B03D10121ED
S315080010100820FFF7A7FD00218B4A606820F04BFCEB
S3150800102030B140F27142864986480AF07FF9FEE7F8
S31508001030FFF7A2FFA8B9D4F804801FF0BEF9054649
S31508001040A0681FF0C5F929187F4A404689B220F0E2
S3150800105043FC30B140F2774279497A480AF066F99A
S31508001060FEE7A378032B02D1606811F085FF1EF016
S3150800107015F9B80702D50120FFF792FE16F0A84F1A
S3150800108002D00220FFF78CFEB1021FD500214020B6
S3150800109005ACFFF767FD2146484620F024FDA8B9B0
S315080010A09DF81C300AAA022B21D18DF83030BDF8E4
S315080010B01430ADF8283010460FF04CFA30B14846D7
S315080010C020F00FFD01214020FFF74CFD320752D5D5
S315080010D0594D0321686805AA20F0B2FC804688B9F4
S315080010E040F2B342564957480AF020F9FEE7032B67
S315080010F005BF8DF83030D4E900018DF83000C2E91B
S315080011000001D8E79DF814306868072B40F0228163
S3150800111041460AAA20F098FC824630B140F2B6420F
S31508001120474948480AF002F9FEE7FFF725FFBDF8E8
S31508001130161090B9FFF72EFF68B10431686889B2B6
S315080011400AAA20F083FC40B140F2C7423C493D4818
S315080011500AF0ECF8FEE70231F0E7BDF816000121C7
S31508001160073080B20DF010F9039000284AD101210A
S315080011700C2010F029F9B10705D52F4B1B881A0743
S3150800118001D5FFF765FDB3010AD500210420FFF755
S31508001190E9FC294B9A78012A02D1586811F0ECFE2D
S315080011A016F0284F03D000210420FFF7DBFC7E064B
S315080011B00CD5214C23881D0701D5FFF749FD238847
S315080011C0580703D500210420FFF7CCFCF90540F1A8
S315080011D0CF80484620F0D2F9022802D0032840F0F2
S315080011E0C080154C23885A0703D500210420FFF731
S315080011F0B9FC23889B0740F1BB80012011B0BDE8EC
S31508001200F04FCDE54FF0000B0CF094FFCDF800B091
S315080012100246BDF8163004464146686820F030FCA0
S31508001220BDF81630834211D04FF49B620449054835
S315080012300AF07CF8FEE700BFA44400202C4E0020EC
S315080012406D45020894420208D04400201FF0B5F804
S3150800125020440DF0E3FC00F00700022823D1AB7808
S31508001260042B88D11FF0A9F8434B204482781B78B9
S315080012709A4280D159460820FFF774FC1FF09DF862
S3150800128020440DF0CBFC3D4BC0F3001018719DF8BF
S3150800129036302B73FFF7B6FC00287FF46CAF68680E
S315080012A011F06AFE67E71FF088F820440DF0B6FCD7
S315080012B0830648D51FF081F820440DF0AFFC00F0F6
S315080012C00700032828D001210420FFF74BFC20F053
S315080012D0E1FB2863BDF816309DF836200120E2545C
S315080012E0BDF816309DF8372023449A71BDF81610BC
S315080012F00A9A013121440DF09FFCBDF81630039877
S315080013001C4484F805A00DF0D3F81D4B18780CF092
S31508001310EFFB1DF0C3FF2EE7092120461FF069F9F0
S31508001320205C01210428CFD1FFF71CFC20F0B2FB7A
S3150800133028632B885806CDD559464020FFF712FC5E
S315080013404FF0010AC6E7AB78012BC3D1686811F0E4
S3150800135013FEBFE720F06EFB4146686820F08DFB60
S3150800136009E740F2B5520749074809F0DFFFFEE7EB
S3150800137011B0BDE8F08F00BF114500202C4E0020AB
S315080013800C4400206D4502089442020808B502463E
S31508001390FFF7F2FD30B1072A06D80020034B83F881
S315080013A0342008BD7020FCE70220FAE7A444002098
S315080013B008B50246FFF7E0FD28B10020034B93F875
S315080013C03430137008BD7020FCE700BFA444002029
S315080013D008B5074B01460022586820F066FB30B175
S315080013E04FF437720349044809F0A0FFFEE708BD29
S315080013F0A44400206D4502089442020808B5074B2C
S3150800140001460022586820F04AFB30B140F2E22239
S315080014100349044809F08AFFFEE708BDA4440020F2
S315080014206D4502089442020808B5074B01465868FC
S3150800143020F047FB30B14FF43A720449044809F0EA
S3150800144075FFFEE708BD00BFA44400206D450208ED
S315080014509442020808B5064B9B7833B140F2F22253
S315080014600449054809F062FFFEE7BDE808402FE495
S31508001470A44400206D4502089442020808B5044BAE
S315080014800146586820F0F8F9002818BF8B2008BDD7
S31508001490A4440020014B586811F07ABFA4440020E8
S315080014A0014B5888704700BF2C4E00207FB501239A
S315080014B0ADF80E304FF6FE73084800930DF10E0294
S315080014C0002304A9406820F053F901288CBF4FF681
S315080014D0FF70BDF8100007B05DF804FBA4440020B7
S315080014E008B5044B0146586820F0BCF8B0FA80F0FD
S315080014F0400908BDA444002038B50B4D0446AB7816
S31508001500012B0DD8FFF7ECFF60B1084B5C80AB7878
S315080015101BB9FFF7DDFB002038BDFFF741FBFAE7F3
S315080015203E20F9E78A20F7E7A44400202C4E002045
S31508001530024B9B780BB9FFF7CBBB7047A44400203E
S31508001540014BD874704700BFA444002008B5054B6A
S315080015500121586820F044F80028B8BF033040F34A
S31508001560870008BDA444002008B5044B586820F03D
S3150800157075F8034BB3FBF0F080B208BDA444002015
S3150800158040420F0030B58DB02C220446002101A838
S3150800159020F018FF01234FF002328DF8083064233B
S315080015A0CDE9032306930B23224D8DF82C302B8D82
S315080015B0ADF80A30FFF7E0FCA0B140F2F23307932A
S315080015C04FF47A7305930CB9FFF76EFB686801A9A7
S315080015D011F0CAFFC0B140F269621749174809F00D
S315080015E0A5FEFEE7FFF7C0FF0C234343902B0793A6
S315080015F0A3F10A02D8BF91230592D8BF0793059B8A
S315080016008B2BE0D88C23DDE7FFF7C4FC60B1012201
S315080016106868114620F063FA30B140F26C620649F8
S31508001620064809F083FEFEE70CB9FFF751FB0DB03B
S3150800163030BD00BFA44400206D450208944202084C
S31508001640F8B51BF004F9564C06462388D90503D588
S31508001650A37843BBFFF73CFB524D6B79FF2B13D0A6
S315080016606B7903F0FF0723BBFF236B71A378032B6A
S315080016700AD100233046A3701BF0EFF83846FFF76F
S3150800168061FB1BF0E4F80646A378042B08D12B79F6
S31508001690FF2B05D02B79022B14D143480CF022F9E5
S315080016A0FF232B7128E000214FF48070FFF75AFAC8
S315080016B0D2E76B79012B4FF0FF0314BF89278D27DB
S315080016C06B71D6E72B7913B12B79012B1FD1FFF755
S315080016D099FA0022FF212B7984F820202971DBB2A0
S315080016E00546002848D0012B0AD164212E48A3704C
S315080016F00CF003F9FFF754FA30461BF0AEF806E093
S315080017003046A2701BF0A9F83120FFF71BFB23888F
S315080017101A0608D500218020FFF724FA606820F011
S315080017201EF90FF06CF823889B0507D54FF4007057
S315080017300021FFF717FA0020FFF724FF0CF0CAFE76
S31508001740E08628B30CF0F6FC0121054600200FF0D0
S315080017503BFEA678012E15D1002684F82060A670D7
S31508001760FFF7B6FA28460EF04DFCA378E6867BB955
S31508001770BDE8F8400EF0E6BEA07030461BF06DF8E6
S315080017802846C2E72EB128460EF03CFC0023E38625
S31508001790F8BDFFF79DFA28460EF034FCE686F7E713
S315080017A0A44400202C4E0020C44400207FB57A4C67
S315080017B02388DB0700F1E78001210846FFF7D2F905
S315080017C00523764D764905F10800A37011F0A6FBAE
S315080017D0606028B9F3227349734809F0A7FDFEE74C
S315080017E072481FF019FF6AA3D3E90023CDE9002345
S315080017F04FF0FF324FF0FF3360681FF0B7FF4FF42A
S315080018008811606811F03AFE014630B140F20B12B9
S315080018106449654809F08AFDFEE7654B1B78012B8C
S315080018200ED1644A606811F09DFD606811F0CAFE29
S31508001830E0B140F217125B495B4809F077FDFEE715
S315080018405D4E316831B94FF48D725649564809F0E4
S315080018506DFDFEE7574A606811F084FD33689B68A2
S3150800186023B1DB6913B15B7803B1EB71FFF71EFE99
S31508001870524B68801B780120C3EB431203EB8203AB
S31508001880DB002385FFF77EFE65680BF0ABFF0022C1
S315080018900146284620F00FF9054630B140F22D12D0
S315080018A04049414809F042FDFEE740F20353042649
S315080018B02382434BA6741B78E374FFF755FE00EBAF
S315080018C080039B00A382FFF74FFEC000E0823146EB
S315080018D06068A5611FF0B1FE30B14FF49E723149C0
S315080018E0314809F023FDFEE73246606803A91FF078
S315080018F067FF042806D04FF4A0722A492A4809F03F
S3150800190015FDFEE703A901200DF0A4F908F00AFD6C
S3150800191008224FF0FF3160681FF032FF30B140F205
S3150800192049122049204809F001FDFEE711F0C6FFDB
S3150800193030B140F24F121B491B4809F0F7FCFEE78D
S31508001940FFF71AFB68B11BF0D1FB014660681FF070
S315080019507EFF30B140F253121249134809F0E6FCF3
S31508001960FEE76468FFF7A2FD164B014603F10C0279
S3150800197020461FF031FE30B14FF4AD7209490A48CE
S3150800198009F0D4FCFEE704B070BD00BFAFF30080D9
S315080019900A0020FF42030000A44400202C4E002029
S315080019A08D0B00086D45020894420208690345EC50
S315080019B0F6440020F10A0008844D0020724F0020EA
S315080019C0714F00209845020808B5044B58681FF067
S315080019D047FE034BB3FBF0F080B208BDA4440020D9
S315080019E040420F002DE9F043864D87B02B889B07B0
S315080019F006D440F201728449844809F097FCFEE750
S31508001A00AB78033B012B06D940F203727E497F4827
S31508001A1009F08CFCFEE7AA6832B940F206727A49E8
S31508001A207A4809F083FCFEE7794E2C88F77914F09A
S31508001A30200418BF4FF47A744FEA1718FFF79CFA78
S31508001A40002872D0B8F1020F0AD0A8F10303022BBE
S31508001A5069D940F21A726C496C4809F067FCFEE7CE
S31508001A60032795F8343008EBC8089844694B1046A4
S31508001A7003EB4803B3F81C801EF0AAFC4FF4FA5394
S31508001A804343B3FBF8F378227733B3FBF2F31F44EF
S31508001A90C7EB0717AB78FF00BFB204F5347417FA23
S31508001AA084F4042BA4B203D107F6E8072744BCB292
S31508001AB0D5F808801EF081FC0746A8681EF088FC49
S31508001AC007441EF0A0FCBFB23F1A1EF076FC404445
S31508001AD00DF0A4F864238DF80C304F4BD5F804901C
S31508001AE0CDE90434C0F340141EF099FCBFB2034696
S31508001AF041463A4648461FF09FFF2B88718813F0E7
S31508001B00200F318003AB75D000932246434B68689B
S31508001B101FF054FD002872D040F2D9623A493B487A
S31508001B2009F004FCFEE706279BE7FFF733FA0028CF
S31508001B3044D0384B07F00F0708EBC801394403EBCC
S31508001B4041031046B3F81C901EF042FCB8F1000F92
S31508001B502AD0B8F1010F2AD14FF00408400080B20C
S31508001B60F3191B7E4BB14FF4FA5202330344434434
S31508001B709BB25343B3FBF9F39CB2AB78042B97D1D2
S31508001B80FFF7F2FC37443B7E814605339844FFF75E
S31508001B901BFF0C2308FB00F003FB09F909EBC0093E
S31508001BA0A1441FFA89F483E74FF00208D8E740F208
S31508001BB03B721549154809F0B9FBFEE7FFF704FF24
S31508001BC00746A8681EF004FC09307843AB7804EB96
S31508001BD0C000042B84B27FF46BAFFFF7C5FC074641
S31508001BE0FFF7F2FE602358430C2303FB070020444B
S31508001BF084B25DE7224668681FF0DEFC8AE707B014
S31508001C00BDE8F083A44400206D450208944202080A
S31508001C102C4E00209845020820A10700B444002055
S31508001C20F8B5484C258815F0020506D04FF4B3726E
S31508001C304549464809F07AFBFEE784F820501AF031
S31508001C4006FE238806465A070AD51FF023FF236B8C
S31508001C50C01A238D984203D929460420FEF782FF2D
S31508001C6030461AF0FAFDA778022F37D11AF0EFFDA1
S31508001C702388064613F0040507D035480BF032FED4
S31508001C803046BDE8F8401AF0E8BD1AF0E6FDA0684F
S31508001C900EF090FC20B1A570BDE8F840FFF752B8E9
S31508001CA01AF0D5FDA66805461EF087FB30440CF0F1
S31508001CB0B5FF10F0200F0CBF03230423012138467B
S31508001CC0A370FEF74FFFFFF78DFE28461AF0C5FDF5
S31508001CD001210846BDE8F8400FF076BB042F27D14E
S31508001CE01C4B1B79FF2B2CD1237FF3B11AF0AFFDC8
S31508001CF0238805465B0704D515480BF0F3FD2846EF
S31508001D00BFE71AF0AAFD237F013B23771AF09FFD50
S31508001D10044601210220FEF725FFFFF763FE204651
S31508001D201AF09BFD01210820D4E74020A370B3E7F1
S31508001D30012F06D100236068A37011F01DF9312028
S31508001D40AAE7F8BDA44400206D450208944202089B
S31508001D50C44400202C4E002038B50121044610202A
S31508001D60FEF700FF064B5D68FFF7FEFB012200FB4E
S31508001D7004F1044B28461FF00AFC002038BD00BFBA
S31508001D80A4440020690D000810B50A4C2388DB0618
S31508001D9006D440F275320849084809F0C7FAFEE742
S31508001DA010200021FEF7DEFE6068BDE810401FF037
S31508001DB0FCBB00BFA44400206D45020894420208FB
S31508001DC038B50D4DE88E30B940F282320B490C48D1
S31508001DD009F0ACFAFEE70CF0ADF90446E88E0CF013
S31508001DE0C5F9811F214401200CF034FF04461FF079
S31508001DF051FE001B38BD00BFA44400206D450208F3
S31508001E009442020810B5074CA36833B940F29132E0
S31508001E100549064809F08AFAFEE71FF03BFEE36A21
S31508001E20C01A10BDA44400206D4502089442020859
S31508001E3038B50A4DE88E30B940F29B320849094850
S31508001E4009F074FAFEE70CF075F90446E88E0CF012
S31508001E508DF9044414F8020C38BD00BFA4440020D0
S31508001E606D4502089442020838B50A4DE88E30B925
S31508001E7040F2AA320849094809F058FAFEE70CF078
S31508001E8059F90446E88E0CF071F9044414F9070C64
S31508001E9038BD00BFA44400206D45020894420208DC
S31508001EA038B50A4DE88E30B940F2B93208490948C2
S31508001EB009F03CFAFEE70CF03DF90446E88E0CF012
S31508001EC055F9044414F9010C38BD00BFA444002098
S31508001ED06D45020894420208024B1888C0F3C010E8
S31508001EE0704700BFA444002030B585B005466C464F
S31508001EF00D4B0FCB84E80F000DB12B6800930B4BED
S31508001F0021460022586811F059FA044630B140F2C9
S31508001F10D7320749074809F009FAFEE7FEF740FEF7
S31508001F20204605B030BD00BF20460208A444002064
S31508001F306D4502089442020808B5074B01465868E1
S31508001F401FF00FFD30B140F2E5320449044809F0AC
S31508001F50EDF9FEE708BD00BFA44400206D45020860
S31508001F609442020808B5064B58681FF016FD30B1B2
S31508001F704FF47C720349044809F0D8F9FEE708BD16
S31508001F80A44400206D450208944202080122024B2F
S31508001F90114658681FF0F6BAA44400207047F8B5F1
S31508001FA0054604200C461EF0EAF903061DD5104E18
S31508001FB0B778D7B91DB1012D02D00220F8BD012787
S31508001FC02046FFF78DFA0028F7D03A462146706872
S31508001FD01FF0F8FA30B14FF486620649064809F050
S31508001FE0A5F9FEE70623B370E8E77020E6E700BF29
S31508001FF0A44400206D45020894420208042010B546
S315080020001EF0BDF9030610D5094CA378062B0CD192
S3150800201060681FF0DAFA30B140F2494205490648CD
S3150800202009F084F9FEE7A07010BD7020FCE700BF38
S31508002030A44400206D4502089442020840F2615209
S3150800204008B50249024809F071F9FEE76D4502082C
S31508002050944202080348044B834202D0034B03B15F
S3150800206018477047884F0020884F0020000000005E
S31508002070064B0749C91A891048BF0131491003D0D0
S31508002080044B0BB101481847704700BF884F002022
S31508002090884F00200000000010B5064C237843B98D
S315080020A0FFF7D8FF044B13B10448AFF300800123B0
S315080020B0237010BD304B0020000000004C80020841
S315080020C008B5054B1BB105490548AFF30080BDE8C7
S315080020D00840FFF7CDBF00BF0000000080220020A7
S315080020E04C800208A3F5803A704700BF174B002BB7
S315080020F008BF134B9D46FFF7F5FF00218B460F4699
S315080021001348144A121A20F05DF90E4B002B00D022
S3150800211098470D4B002B00D098470020002104005B
S315080021200D000D48002802D00C48AFF3008019F0C6
S315080021305DFA200029001AF061FA18F0EDFE00BFDA
S315080021400000080000000000000000000020002039
S3150800215000200020844B0020000000000000000042
S3150800216070B582B004468368C26853F822301E7878
S315080021701DF02CF9864222D300230093ADF80430D3
S31508002180204B1B88ADF80230A168E36851F823207C
S315080021901278ADF804206268D21A012A21DD0133CB
S315080021A051F823301B88ADF8003068461DF002F957
S315080021B00446032000F012FFC0B902B070BD054600
S315080021C0032000F00BFF0028F7D01AF0DAFA1AF00D
S315080021D0D9FA2B4632460C490C4800681CF00CFB11
S315080021E0EBE740F2FF13ADF80030DEE71AF0C9FA64
S315080021F01AF0C8FA22460649044B18681CF0FCFA7D
S31508002200DBE700BF724A0020C828020844260020DF
S315080022100029020810B582B08368C26853F82230D4
S315080022201C780023019343689B1A012B0FDD01AA32
S3150800223001211BF0CEFC01469DF804001DF0B2F802
S3150800224020461DF0BBF8044620B902B010BD1DF0AB
S31508002250ADF8F5E7032000F0C1FE0028F5D01AF026
S3150800226090FA1AF08FFA22460249034B18681CF0B6
S31508002270C3FAEAE7102902084426002010B50346E7
S315080022808168C26851F82200B0F900001A4C208013
S315080022905B689B1A012B0FDD013251F8223093F946
S315080022A00010003918BF01211DF038F8A0B9032025
S315080022B000F094FE10B910BD0021F5E71AF061FA96
S315080022C01AF060FA0D4B1C681DF02CF802460C49F2
S315080022D020461CF091FAEEE7012000F07FFE002868
S315080022E0E9D01AF04EFA1AF04DFA0649034B186867
S315080022F01CF082FADFE700BF724A0020442600205D
S315080023002C2902084029020810B584B0002300933E
S315080023108268C36852F8232012788DF80C20022AA6
S3150800232010D18268013352F823301B78ADF8043097
S3150800233001A81DF02BF80446032000F04FFE58B9FB
S3150800234004B010BD6A4601211BF043FC0146009A01
S3150800235001A820F05EF8EBE71AF013FA1AF012FA61
S3150800236022460349034B18681CF046FAE8E700BF03
S31508002370A4290208442600202DE9F04186B01CF065
S31508002380DDFF0446894B1B7813F0020F2CD0884ECC
S3150800239013F0010F2AD0864F13F0040F28D0DFF868
S315080023A01082032000F01AFE28BB032000F016FE58
S315080023B058BB032000F012FE002835D1032000F098
S315080023C00DFE00283ED1032000F008FE002847D164
S315080023D0032000F003FE00285ED1032000F0FEFD76
S315080023E0002867D1002471E0724ED1E7714FD3E718
S315080023F0DFF8C081D5E71AF0C4F91AF0C3F96E49B7
S315080024006E4B18681CF0F8F9CFE71AF0BAF91AF00B
S31508002410B9F96A4B1D6803F063F802460B4668492A
S3150800242028461CF0E9F9C4E71AF0ABF91AF0AAF93C
S31508002430624B1D681CF056FF0246624928461CF08E
S31508002440DBF9BBE71AF09DF91AF09CF95B4B1D689E
S315080024501CF080FF02465C4928461CF0CDF9B2E71D
S315080024601AF08FF91AF08EF9E279A3796179207951
S31508002470E57894F802C094F801E024780594CDF83C
S3150800248010E0CDF80CC00295019000914F494B48D9
S3150800249000681CF0B1F99BE71AF073F91AF072F9A3
S315080024A0464B1C681CF04EFF0246494920461CF064
S315080024B0A3F992E71AF065F91AF064F945493F4B12
S315080024C018681CF099F98DE70134E4B2072C12D884
S315080024D0032000F083FD0028F6D01AF052F91AF00E
S315080024E051F9364B1D681CF029FF025D3A4928460A
S315080024F01CF082F9E8E7032000F070FD98B9032084
S3150800250000F06CFDC8B9032000F068FD18BB032075
S3150800251000F064FD68BB032000F060FD002836D19A
S3150800252006B0BDE8F0811AF02CF91AF02BF92B4900
S31508002530224B18681CF060F9E1E71AF022F91AF044
S3150800254021F91E4B1C681CF001FF0246244920464F
S315080025501CF052F9D7E71AF014F91AF013F9174BC9
S315080025601C681CF0D7FE02461E4920461CF044F99A
S31508002570CDE71AF006F91AF005F9104B1C681CF09D
S31508002580D1FE0246184920461CF036F9C3E71AF070
S31508002590F8F81AF0F7F8CDF800803B4632461349AA
S315080025A0064800681CF028F9BAE700BF644F002007
S315080025B05829020860290208BC2902084426002076
S315080025C0C4290208E0290208FC290208182A020878
S315080025D03C2A0208582A02086C2A02086C4102089A
S315080025E0742A0208902A0208A82A0208C02A0208A1
S315080025F010B58368C26853F8223018781CF086FE36
S31508002600044678B9032000F0E9FC00B910BD1AF0B9
S31508002610B8F81AF0B7F822460A490B4B18681CF0A6
S31508002620EBF8F3E7012000F0D9FC0028EED01AF009
S31508002630A8F81AF0A7F822460449034B18681CF0B4
S31508002640DBF8E3E7F82A0208442600201C2B0208D8
S3150800265070B582B08368C26853F822301B78134A73
S31508002660137013F0020F0ED0114C13F0010F0CD09B
S315080026700F4D13F0040F0AD00D4E032000F0AEFCE8
S3150800268038B902B070BD0B4CEFE70A4DF1E7094EB9
S31508002690F3E71AF076F81AF075F800962B462246F4
S315080026A00549064800681CF0A7F8EAE7644F0020C9
S315080026B058290208602902086C29020844260020C5
S315080026C070B58268C36852F823100C78013352F843
S315080026D023301D78294620461CF060FE80B9032069
S315080026E000F07CFC00B970BD1AF04BF81AF04AF8F5
S315080026F02B4622460B490C4800681CF07DF8F2E789
S315080027000646012000F06AFC0028ECD01AF039F8D9
S315080027101AF038F832460549034B18681CF06CF86D
S31508002720E1E700BF4C2B0208442600207C2B020858
S3150800273008B51CF0E3FD032000F050FC00B908BD05
S315080027401AF01FF81AF01EF80249034B18681CF015
S3150800275053F8F4E7AC2B02084426002030B583B0C2
S315080027608368C26853F822301C7801A920461CF0F9
S31508002770C9FD88B9032000F031FC08B903B030BDA3
S3150800278019F0FFFF19F0FEFF019B22460B490C4882
S3150800279000681CF031F8F1E70546012000F01EFC40
S315080027A00028EBD019F0EDFF19F0ECFF2A46054991
S315080027B0034B18681CF020F8E0E700BFCC2B020892
S315080027C044260020E82B020830B595B004460D468D
S315080027D0684619F0B7FE0DF12C0EEC46BCE80F0062
S315080027E0AEE80F00BCE80F00AEE80F00DCF80030DA
S315080027F0CEF800300BA9494B18681DF054F810F1B3
S31508002800880F4CD1684619F09DFE0DF12C0EEC464A
S31508002810BCE80F00AEE80F00BCE80F00AEE80F00FA
S31508002820DCF80030CEF800304FF410510BA819F040
S31508002830A9FE8023ADF82E304FF440730A930AA8F8
S3150800284019F091FE0A9B0E93354B0F93334B1A687A
S315080028500C9B0D9213F0FF0F04D123F0FF0343F0F6
S3150800286001030C9340F201130C932C4B2A46214684
S315080028700BA81DF03BF8044610BB032000F0AEFB86
S3150800288090B9264B18681CF035FD0546002831D14D
S31508002890032000F0A3FB044610BB01242FE01F4BC6
S315080028A018681CF0E8FFADE719F06BFF19F06AFF2E
S315080028B01A4B1A681B491C4B18681BF09DFFE0E76A
S315080028C0032000F08BFB0028DBD019F05AFF19F023
S315080028D059FF22461549144B18681BF08DFFD0E79F
S315080028E019F04FFF19F04EFF11490F4B18681BF0EE
S315080028F083FF04E0032000F071FB044610B920466C
S3150800290015B030BD19F03DFF19F03CFF2A460949BC
S31508002910054B18681BF070FF0024F0E7982200208A
S31508002920004440040C2C0208442600203C2C0208D3
S31508002930602C0208802C020800B583B000210191A2
S3150800294001AA1BF046F9019910290ED0032000F0C0
S3150800295045FB60B119F015FF19F014FF102205495F
S31508002960054B18681BF048FF01E0FFF72DFF03B081
S315080029705DF804FBA02C02084426002010B58AB096
S3150800298008F032F8032000F029FBF8B901244B4B74
S315080029901C6001A819F008FE01A920461CF083FF57
S315080029A010F1880F1CD0032000F018FB002870D106
S315080029B0424B18681CF09EFC1CF0ECFC04460320F5
S315080029C000F00CFB00286ED10AB010BD19F0D9FE34
S315080029D019F0D8FE3A493B4B18681BF00DFFD5E7AE
S315080029E0032000F0FBFA002839D1344B1A68029B01
S315080029F0039213F0FF0F04D123F0FF0343F0010302
S31508002A000293314B05934FF440730093684619F0CF
S31508002A10DCFD009B04934FF4105101A819F0E4FD66
S31508002A208023ADF8063040F201130293234B10229F
S31508002A30264901A81CF05AFF0446D0B9032000F025
S31508002A40CDFA0028B4D019F09CFE19F09BFE1B4B5A
S31508002A501A681F491B4B18681BF0CEFEA8E719F029
S31508002A6090FE19F08FFE1B49164B18681BF0C4FE22
S31508002A70BBE7032000F0B2FA002899D019F081FECE
S31508002A8019F080FE224614490E4B18681BF0B4FE56
S31508002A908EE719F076FE19F075FE1049094B18688D
S31508002AA01BF0AAFE84E719F06CFE19F06BFE2246AD
S31508002AB00B49044B18681BF09FFE85E798220020F7
S31508002AC0C82C02084426002000444004744D002007
S31508002AD00C2C0208D02C0208F82C0208182D020823
S31508002AE0442D02080379012B78D12DE9F04184B0F1
S31508002AF005463B4B1B7813F0010F03D0037813F000
S31508002B00010F53D0032000F069FA08B900240BE03E
S31508002B1019F037FE19F036FE6A883249324B1868C2
S31508002B201BF06AFEF2E70134EB88A34210DD0320AE
S31508002B3000F054FA0028F6D019F023FE19F022FE08
S31508002B40AB681A5D2949284B18681BF055FEEAE759
S31508002B50A96801200CF07EF80446A9680431012012
S31508002B600CF078F8002C24DB002784EAE472A2EB48
S31508002B70E4721F4B83FB0251D617C6EBA1164FF41E
S31508002B807A7101FB162683FB0452E417C4EBA214E0
S31508002B90002CB8BF6442A3FB00234FEA931801FB3D
S31508002BA018089D09032000F019FA20B904B0BDE8F9
S31508002BB0F0810127D9E719F0E4FD19F0E3FD0A4B86
S31508002BC018684FB10B4ACDF8088001950096234640
S31508002BD009491BF011FEE9E7084AF4E7704700BF08
S31508002BE0644F0020642D0208442600207C2D02082C
S31508002BF0D34D62105C2D0208842D0208602D020850
S31508002C0000B9704710B50446032000F0E7F900B98B
S31508002C1010BD19F0B6FD19F0B5FD22460249034B61
S31508002C2018681BF0E9FDF3E7B42D020844260020D6
S31508002C3010B5902811D0044691281DD0032000F025
S31508002C40CDF970B119F09DFD19F09CFD2246124987
S31508002C50124B18681BF0D0FD03E0032000F0BEF904
S31508002C6000B910BD19F08DFD19F08CFD0C490B4B00
S31508002C7018681BF0C1FDF4E7032000F0AFF900283F
S31508002C80EFD019F07EFD19F07DFD0649034B186853
S31508002C901BF0B2FDE5E700BFDC2D02084426002044
S31508002CA0C02D0208CC2D020838B505460C4603206F
S31508002CB000F094F900B938BD19F063FD19F062FD0A
S31508002CC02B4622460249034800681BF095FDF2E7A9
S31508002CD0F42D02084426002008B51CF007FB18B19D
S31508002CE0034819F03FFE08BD014819F040FEFAE70F
S31508002CF0903A020810B580B10446012000F06EF93A
S31508002D0000B910BD19F03DFD19F03CFD22460A49EF
S31508002D100A4B18681BF070FDF3E7032000F05EF914
S31508002D200028EED019F02DFD19F02CFD0449034BAF
S31508002D3018681BF061FDE4E72C2E020844260020E3
S31508002D40542E0208F0B583B004460D4616461F46B3
S31508002D50032000F043F908B903B0F0BD19F011FDDE
S31508002D6019F010FD019700962B46224602490348A2
S31508002D7000681BF041FDEFE76C2E02084426002090
S31508002D8008B5024B1B6803B1984708BDCC22002042
S31508002D9008B5024B5B6803B1984708BDCC220020F2
S31508002DA008B5024B9B6803B1984708BDCC220020A2
S31508002DB008B5024BDB6803B1984708BDCC22002052
S31508002DC008B5024B1B6903B1984708BDCC22002001
S31508002DD008B5024B5B6903B1984708BDCC220020B1
S31508002DE030B585B0094C2268094B1A60094D0A4B63
S31508002DF02B600A4B019304F03DFD02902B68039368
S31508002E0001A920681AF007FF05B030BDA04D0020C3
S31508002E10142F0020102F0020944D0020503A02084D
S31508002E2008B5024B18681AF00AFF08BDA04D002025
S31508002E3038B504F01FFD0446064D2B68D3F8B002DA
S31508002E4004F00CFD28681AF014FF204604F006FD6D
S31508002E5038BD00BFA04D002010B4194B5A6E02F4BD
S31508002E60803203F580514FF480304866586E4FF033
S31508002E7000434B66134B596C01F001014AF6CD34F9
S31508002E801C64104B5B6B13F0010FFAD10E4B012437
S31508002E905C600C4B1B6B13F0010FFAD011B1094B98
S31508002EA00A491964002803DB094B4FF000415966AB
S31508002EB01AB9074B4FF480325A665DF8044B7047CF
S31508002EC00080005000400950006009503254FFFF4E
S31508002ED000A00050022907D808B5044B1B681868DB
S31508002EE008B1436A984708BD704700BFA44D002043
S31508002EF030B591B01F4C0DF1200CA646BEE80F0068
S31508002F00ACE80F009EE80F008CE80F0006AB2034F3
S31508002F1094E8030083E80300EC4600240094CCF808
S31508002F200440CCF80840CCF80C40CCF81040CCF85B
S31508002F3014408CE803000B238DF808300C238DF819
S31508002F4009300D4B03932023049301238DF8143085
S31508002F508DF81530094B08AA6146094804F016FD94
S31508002F60054621464FF4E13019F03EFC284611B0DB
S31508002F7030BD00BF683A0208A0250020C025002001
S31508002F801826002008B50349034805F0E7FCFFF7B3
S31508002F90AFFF08BDA84D00203C26002008B5024812
S31508002FA01BF07AFC08BD00BF1826002008B50248A9
S31508002FB01BF072FC08BD00BF1826002008B5024B9E
S31508002FC01A6A1868904708BD1826002008B50248EE
S31508002FD019F0C3FC08BD00BF903A020803460B4A25
S31508002FE0107828B10A4A12789A4202D2002000E0E4
S31508002FF00120084A12783AB1074A127842FA03F3CE
S3150800300013F0010F00D10020704700BF674F002062
S31508003010664F0020314B0020654F002008B5084B4D
S3150800302001221A70074B00221A70074B04221A70E5
S31508003030064B1F221A7004F01DFC054B186008BDCC
S31508003040674F0020314B0020664F0020654F002057
S315080030504426002008B504481BF084FA19F0F6FA4D
S3150800306000F078F808BD00BF6C3E020808B50248B3
S315080030701BF078FA08BD00BF6C3E02082DE9F04146
S3150800308080460F4601F109050026344604E05B2117
S31508003090082000F097FA0134AC4233D2052C1BD82D
S315080030A001A353F824F000BF8F300008C130000890
S315080030B0F5300008C9300008CD300008D1300008C6
S315080030C0FBB20433D9B2E3E78021E1E70021DFE769
S315080030D0731C3146DEB2DBE7BB1DA3420CD0FB1DD9
S315080030E0A3420BD007F10803A34209D0A31F18F87F
S315080030F00310CDE7D121CBE75A21C9E75A21C7E703
S315080031005D21C5E70020BDE8F08100BF00B583B0AA
S3150800311002218DF800100022054819F04FFB019096
S3150800312008216846FFF7AAFF03B05DF804FB00BF55
S31508003130006A1800024B1022C3F8A020704700BF8F
S3150800314000E00350024B1022C3F8A020704700BFCE
S3150800315000D00350F0B589B001AC3F4D0FCD0FC478
S3150800316095E8070084E807003C481BF0FBF93C4F4C
S3150800317038461BF0F7F901248DF81240394B0393B2
S31508003180394E01A9304619F055FF23460422214637
S31508003190022002F01FF8002322460221084602F008
S315080031A019F8234604220321022002F013F82346C5
S315080031B004221146022002F00DF82C4D2C4BC5F8BE
S315080031C0AC374FF00213C5F8A837A3F58033C5F816
S315080031D0B0371C23C5F898374FF4487006F046FFF9
S315080031E0FFF7A8FF142006F041FFFFF7ABFF2320E7
S315080031F006F03CFFFFF79EFFB921304619F068FF3D
S31508003200FFF7A0FF00231A462146022001F0E2FF3D
S3150800321000231A460221084601F0DCFF2346002255
S315080032200321022001F0D6FF2346002204210220B2
S3150800323001F0D0FF304602F073F90023C5F8AC3729
S31508003240C5F8A837C5F8B037C5F8983738461BF01B
S315080032508EF909B0F0BD00BFA83A02086C3E020814
S31508003260603E020800127A0000C0055000C00350F4
S315080032700200030008B50448044A121A92100449C9
S3150800328019F0C2FA08BD00BF700100086003000803
S31508003290844B002008B500F02FF8FFF7EBFF124A21
S315080032A00AE01068516850F8230041F823000133FA
S315080032B091688B42F5D30C320C4B9A4201D200230B
S315080032C0F6E70B4A08E01168002041F823000133AD
S315080032D051688B42F7D30832064B9A4201D2002333
S315080032E0F6E7FEF703FF00BF548002086080020875
S315080032F0608002086080020870B5134B134A9A6012
S31508003300D3F8882042F47002C3F88820104A4FF494
S31508003310804191660F4D05F500544FF0FF32226645
S315080033200D4A62660222C3F8D020BFF34F8FBFF35F
S315080033306F8F002004F084FA4FF44036E6600020D0
S315080033401BF0F8F92E6170BD00ED00E000000008E2
S3150800335000900050008000447FFF7F01014B1868F1
S31508003360704700BFB84D0020014B1860704700BF7A
S31508003370B84D002008B5094B1B6F03F00703022B55
S3150800338004D0032B05D0012B06D0FEE7FFF7E6FF96
S3150800339003E0034B186800E0024808BD00800050AF
S315080033A0C04D0020002D310108B5FFF7E3FF054B9E
S315080033B01B6FC3F303330133B0FBF3F0024B186002
S315080033C008BD00BF00800050B44D0020004870477B
S315080033D000B4C404014B1868704700BFC04D0020F4
S315080033E008B5064B1860064B1B6F03F00703032B43
S315080033F000D008BDFFF7D8FFFBE700BFC04D00208F
S315080034000080005000487047002D31014FF0B4434A
S315080034109868C0F304400C2808D8DFE800F00907CC
S315080034200707070722181A071C1E200000207047E6
S315080034304FF0B4439B6803F04073B3F1807F12D01A
S31508003440B3F1007F11D003B17047094870470948A6
S31508003450704709487047094870470948704709483E
S31508003460704709487047094870470948ECE700BFA4
S3150800347000093D000024F400C0EA210180BA8C014D
S315080034800048E801005A6202405DC60080841E00BA
S3150800349040420F00014B1868704700BFBC4D002022
S315080034A0F0B18446F1B110B409E004F120000FE050
S315080034B02033C01A18D1BCB10CF1010C01319CF8AB
S315080034C000400B4B1B5D03F00303012BEDD0204698
S315080034D00B78074AD25C02F00302012AE9D1E7E732
S315080034E001207047012070475DF8044B704700BF04
S315080034F0F17E020810B582B00024019429481BF019
S3150800350031F8012304220321204601F063FE2046F8
S3150800351019F030FD244B0122C3F8442401A90520E3
S315080035201BF019F800283BD1204BD3F8F02042F0C5
S315080035300102C3F8F020D3F8FC2042F08072C3F8E9
S31508003540FC20A3F55D431A4A1A60019B03F5D523AF
S3150800355003F2FC43DB08174AA2FB03239B0A013B41
S31508003560154A13610223C2F8F0304FF48073C2F88B
S3150800357004334FF06043114AC3F8B02F104AC3F81A
S31508003580802ED3F8002E42F48072C3F8002EFF2254
S3150800359083F82020D3F8002E22F48072C3F8002E78
S315080035A002B010BD6C3E020800D0035000ED00E0EA
S315080035B0FF03004017916502000004E055CEACC534
S315080035C0090001004FF06043D3F8803E13F0010F65
S315080035D001D1112070470E4AD2F8FC3043F08073AF
S315080035E0C2F8FC304FF06043D3F8002E4FF0010CC0
S315080035F00CFA00FC42EA0C02C3F8002E53F82030FD
S31508003600002BE8D04FF0604303F8201000207047E5
S3150800361000ED00E010B5044606481AF0A3FFA378AB
S31508003620B3FA83F35B0904226178207801F0D2FDAE
S31508003630002010BD6C3E020883784BB903784278A7
S315080036400121914003EB43031B01064AD150704701
S31508003650037842780121914003EB43031B01024A98
S31508003660D150704740E0035040D0035083784BB99F
S31508003670037842780121914003EB43031B01064A74
S31508003680D1507047037842780121914003EB4303F8
S315080036901B01024AD150704740D0035040E0035006
S315080036A0037842780121914003EB43031B01014A49
S315080036B0D150704740F0035002460378417803EB37
S315080036C043031B01103305481B58CB4003F0010088
S315080036D093780BB980F00100704700BF30C00350E3
S315080036E0F0B585B00C4694469DF83410664A1278B3
S315080036F0002A00F0BD800546BCF1070F00F2BA802B
S315080037000A9A002A00F0B8800B9A002A00F0B680C0
S315080037100E9AB2F5006F00F3B38001285BD05B4ABE
S3150800372002EB0C12127B002A00F0AC8000220092F9
S31508003730019202920392564A02EB4C1E002C4FD17C
S315080037404FEA4C1600209051CEF80400CEF8080037
S31508003750CEF80C009EF8020040F010008EF8020029
S315080037609EF8030040F030008EF8030021B9C1B27C
S3150800377041F003018EF8031000930E9B013B444A67
S315080037804FEA4C1002EB4C11165A63F30E161652FA
S315080037900A9B8B600B9B4B60CB789DF83C2062F3B1
S315080037A08303CB70012D36D0109B002B56D0374A99
S315080037B04FEA0C1102EB0C1310985050119A5A60EC
S315080037C000249C605D7372466946604601F0A6FD5A
S315080037D0204605B0F0BD0C9A002AA0D12D48F8E77E
S315080037E02B4F4FEA4C1607EB4C120020B85150608D
S315080037F09060D060907840F010009070D07840F0DB
S315080038000300D0700029B7D107EB4C12C1B241F0C2
S315080038103001D170B0E70E460A7B42F001020A7306
S31508003820D2B242F002020A73CA68042161F39F0207
S31508003830F26006F1100796E80F0087E80F00F269B4
S315080038406FF0030161F39F02F2610C9B7361012C17
S31508003850AAD10B9AB2610C9A7260A5E7002DA6D17F
S315080038600B4B03EB4C139A786FF304129A709EE78E
S315080038700948AEE70748ACE70648AAE70548A8E7B7
S315080038800448A6E70548A4E7324B0020482700204D
S3150800389048260020018000F0028000F0078000F032
S315080038A0134B1B78FBB110B50446F0B118F0CFFFE7
S315080038B00023072B13D80F4A02EB0312127B0AB117
S315080038C00133F6E723600B4A190102EB03130124BF
S315080038D01C730024545018F0C0FF204602E018F06C
S315080038E0BCFF054810BD054870470548FAE700BF04
S315080038F0324B002048270020048000F0028000F0A8
S31508003900018000F038B518F0A2FF04460023072B03
S3150800391006DC0C4A02EB0312127B12B90133F6E7F6
S31508003920002222B1204618F098FF074838BD01F05A
S31508003930A1FC0025054B1D70204618F08EFF284671
S31508003940F4E700BF48270020058000F0324B00202E
S315080039500F4B1B78BBB110B50446072815D818F0CD
S3150800396076FF0C4B03EB04131B7B1BB918F075FF92
S3150800397009480BE0074B03EB041300241C7318F0EB
S315080039806CFF204602E005487047054810BD00BF99
S31508003990324B002048270020068000F0028000F005
S315080039A0018000F000B583B0134B1B680193002318
S315080039B08DF8043018F04BFF104B1B7833B90F4BBA
S315080039C001221A7018F049FF002309E018F045FF94
S315080039D00B480EE00B4A02EB031200211173013368
S315080039E0072BF7DD08238DF8073001A801F066FCE0
S315080039F0002003B05DF804FBC43A0208324B0020ED
S31508003A00038000F04827002008B50A4B1B785BB1F5
S31508003A1007280BD8084B03EB00131B7B43B1002187
S31508003A2001F03EFC002008BD0448FCE70448FAE71C
S31508003A300448F8E7324B002048270020028000F0AF
S31508003A40018000F0078000F008B50A4B1B785BB1CF
S31508003A5007280BD8084B03EB00131B7B43B1012146
S31508003A6001F01EFC002008BD0448FCE70448FAE7FC
S31508003A700448F8E7324B002048270020028000F06F
S31508003A80018000F0078000F008B50A4B1B7853B197
S31508003A9007280AD8084B03EB00131B7B3BB101F040
S31508003AA08DFC002008BD0548FCE70548FAE70548EF
S31508003AB0F8E700BF324B002048270020028000F0BC
S31508003AC0018000F0078000F0104B1B78ABB1072887
S31508003AD015D8B1B10E4B03EB00131B7B9BB10D4BF5
S31508003AE01B6D0122824013EA020003D001230B70EA
S31508003AF00020704700230B70704707487047074837
S31508003B007047064870470648704700BF324B00208A
S31508003B104827002000000450028000F0018000F0D1
S31508003B20078000F00C4B1B7873B110B50C460728BC
S31508003B300CD869B1094B03EB00131B7B53B101F099
S31508003B404FFC2070002010BD054870470548FAE76D
S31508003B500448F8E70448F6E7324B002048270020D7
S31508003B60028000F0018000F0078000F0F8B5194BDC
S31508003B701F6D5B6D1F4002D40125002402E0FEE79D
S31508003B8001346D00072C24D83D42F9D0124B1D652F
S31508003B902301124AD358002BF2D002EB0416B1685F
S31508003BA00131B16072682046984780F00100C0B2C2
S31508003BB0737B012BE4D10028E2D0094B03EB4413B5
S31508003BC01A7B6FF341021A731A7F6FF341021A7751
S31508003BD0D6E7F8BD0000045000200450482700200E
S31508003BE04826002008B5034B1968034B18680EF0E1
S31508003BF023FD08BDC44D0020E44D0020B0F1FF3F71
S31508003C0001D010B97047024870470248704700BF94
S31508003C1021E000F024E000F0F8B505460E469400D1
S31508003C2022461EF04DFEFFF7E9FF074628B9224651
S31508003C30314628461EF09CFB08B93846F8BD014FA8
S31508003C40FBE700BF10E000F038B504461EF034FE6E
S31508003C50FFF7D4FF054608B1284638BD01F046FCF3
S31508003C600146204618F0A3FE0028F5D1004DF3E7DB
S31508003C700EE000F008B518F0DBFD014B186008BD32
S31508003C80B82E002008B5024B186818F0D5FD08BDF7
S31508003C90B82E0020024B4FF480321A67704700BFD7
S31508003CA000900050204B984236D009D91F4B9842B5
S31508003CB036D01F4B984222D11E4BD3F8D0007047FE
S31508003CC0A3F5B703A3F55863984221D006D91A4B32
S31508003CD0984212D1174BD3F8BC007047174B98423D
S31508003CE002D0174B984203D1124BD3F8A000704765
S31508003CF0144B9842F8D00020704700207047124BAA
S31508003D00984203D10B4BD3F8C80070470020704780
S31508003D10084BD3F8B8007047064BD3F8C000704775
S31508003D20044BD3F8CC007047C0EA21010048E801EB
S31508003D30005A62020080E00F0024F40080841E000E
S31508003D4000093D0040420F0080BA8C01324B984270
S31508003D5052D029D8314B984248D009D9304B98428D
S31508003D6047D0304B98421DD12F4BD3F8800070476F
S31508003D702E4B984237D005D92D4B984210D12A4B55
S31508003D80186F70472B4B984202D02B4B984202D1A2
S31508003D90254B986D7047294B9842F9D000207047FB
S31508003DA00020704700207047254B98422CD00CD92C
S31508003DB0244B98422CD003F5740303F5105398420C
S31508003DC00FD1194BD3F8980070471F4B984217D05C
S31508003DD01E4B984203D1144BD3F88C007047002031
S31508003DE0704700207047104B586E70470E4B586F3F
S31508003DF070470D4B986F70470B4BD3F8840070478C
S31508003E00094BD3F888007047074BD3F890007047E2
S31508003E10054BD3F8940070470048E8010024F400E5
S31508003E20C0EA210180BA8C010080E00FC0CF6A0089
S31508003E30405DC60080841E0000093D0040420F0018
S31508003E40007E56030090D00380D54302006CDC0246
S31508003E5038B505460C46174BD3F8200100F0070085
S31508003E60062823D8DFE800F0040A0E16121A1E00E8
S31508003E70012305B1286004B1236038BDFFF76EFA47
S31508003E800523F6E7FFF7A6FA0323F2E7FFF7BEFADC
S31508003E900723EEE7FFF7B6FA0223EAE7FFF75EFA2B
S31508003EA00623E6E7FFF796FA0423E2E70023184617
S31508003EB0DFE700BF0080005038B505460C46164BB4
S31508003EC0D3F8283103F00703013B052B20D8DFE898
S31508003ED003F003131B0F0B17FFF740FA052305B171
S31508003EE0286004B1236038BDFFF738FA0623F6E7E1
S31508003EF0FFF78CFA0723F2E7FFF76CFA0323EEE7DE
S31508003F00FFF768FA0423EAE7FFF77CFA0223E6E7F5
S31508003F1000231846E3E700BF0080005070B582B062
S31508003F2006460D4600230193104BD3F8804104F052
S31508003F300304022C16D0032C0FD0012C07D0002422
S31508003F400EB1019B336005B12C6002B070BD002133
S31508003F5001A8FFF77DFF0F24F2E7FFF757FA019054
S31508003F600724EDE7FFF74EFA0190E9E700800050D5
S31508003F7038B505460C460C4BD3F8903203F00303CC
S31508003F80012B05D0022B07D1FFF740FA072305E0DE
S31508003F90FFF738FA022301E00023184605B1286026
S31508003FA004B1236038BD00BF0080005030B583B02F
S31508003FB005460C4600230193154BD3F8203203F02F
S31508003FC00703042B21D8DFE803F0030B11161B00A7
S31508003FD001230DB1019A2A6004B1236003B030BDF4
S31508003FE0002101A8FFF768FF1123F2E7FFF70EFA91
S31508003FF001900723EDE718F015FC01900A23E8E77E
S31508004000FFF748FA01900923E3E70023E1E700BF39
S315080040100080005038B505460C46104BD3F84001D1
S3150800402000F00300032815D8DFE800F002080C109A
S31508004030012305B1286004B1236038BD18F0F2FBEE
S315080040400A23F6E7FFF726FA0923F2E718F0EDFB4D
S315080040500B23EEE700231846EBE700BF008000506D
S3150800406030B583B005460C4600230193144BD3F8AC
S31508004070603203F00703013B032B1FD8DFE803F088
S31508004080020E1914002101A8FFF7E2FE0F230DB155
S31508004090019A2A6004B1236003B030BD002101A84B
S315080040A0FFF7B8FF1023F2E7FFF7B0F901900723EF
S315080040B0EDE7FFF7A7F901900223E8E70023E6E713
S315080040C00080005030B583B005460C4600230193A6
S315080040D00C4BD3F8703203F00303012B09D0022BE3
S315080040E00DD114230DB1019A2A6004B1236003B0DF
S315080040F030BD002101A8FFF78DFF1023F2E700234A
S31508004100F0E700BF0080005038B505460C46134B53
S31508004110D3F8000200F0070004281BD8DFE800F0F7
S3150800412003090D111500012305B1286004B12360A8
S3150800413038BD18F077FB0A23F6E7FFF7ABF9092332
S31508004140F2E718F072FB0B23EEE7FFF72DF9800A6A
S315080041500E23E9E700231846E6E700BF0080005073
S3150800416038B505460C46134BD3F8080200F007008D
S3150800417004281BD8DFE800F003090D1115000123F8
S3150800418005B1286004B1236038BD18F04BFB0A233B
S31508004190F6E7FFF77FF90923F2E718F046FB0B234A
S315080041A0EEE7FFF701F9800A0E23E9E70023184630
S315080041B0E6E700BF0080005038B505460C46104BB0
S315080041C0D3F8400200F00300032815D8DFE800F012
S315080041D002080C10012305B1286004B1236038BD1C
S315080041E018F020FB0A23F6E7FFF754F90923F2E74C
S315080041F018F01BFB0B23EEE700231846EBE700BF7E
S315080042000080005038B505460C460F4BD3F850329F
S3150800421003F00303022B12D0032B08D0012B0AD07C
S315080042200023184605B1286004B1236038BD18F08C
S31508004230FCFA0B23F6E718F0F5FA0A23F2E7FFF77C
S3150800424029F90923EEE700BF0080005038B5054676
S315080042500C46104BD3F8600100F00300032815D86C
S31508004260DFE800F002080C10012305B1286004B14C
S31508004270236038BD18F0D6FA0A23F6E7FFF70AF9DD
S315080042800923F2E718F0D1FA0B23EEE700231846C4
S31508004290EBE700BF0080005038B505460C46104BCA
S315080042A0D3F8000100F00300032815D8DFE800F072
S315080042B002080C10012305B1286004B1236038BD3B
S315080042C0FFF788F80323F6E7FFF7E4F80923F2E790
S315080042D018F0A6FA0823EEE700231846EBE700BF16
S315080042E000800050B0F5207F20D00ED8B0F5007FB2
S315080042F016D020D810B1B0F5C07F04D10F4B186F77
S31508004300C0F3033018E0002016E0B0F5607F05D151
S315080043100A4BD3F88000C0F301100DE000200BE033
S31508004320064BD3F89000C0F3046005E0034B186F02
S31508004330C0F3802000E00020013070470080005064
S3150800434038B505460C46174B4FF480329A6600205E
S31508004350FFF7C8FF05FB00F0134BDA6902F4803259
S3150800436041F67131D9635B6823F440136CB90F4980
S31508004370884207D800210B430B494B600AB100223B
S31508004380CA6338BD4FF48011F5E7002C07DD0849EC
S31508004390884201D80021EEE74FF48011EBE74FF48D
S315080043A04011E8E70090005000000350005A6202EE
S315080043B0002D3101430905D0012B0DD0022B0DD05C
S315080043C0002200E0002200F01F0049B102F58052E9
S315080043D00123834013607047034AF4E7034AF2E770
S315080043E002F50052F4E700BF648000506880005070
S315080043F008B5802018F063FB034B984203D8034B9B
S315080044004FF480321A6708BD005A620200A00050B5
S3150800441000B583B000230193B0F5807F00F0AF802C
S3150800442011D9B0F5086F00F0B48044D9B0F5286FFB
S3150800443000F0C38069D9B0F5306F79D101A90020A1
S31508004440FFF796FD75E0802873D8242871D32438A1
S315080044505C286ED8DFE800F04C4C4C4C4C6D446D33
S3150800446098546D6D6D6D6D6D6D6D6D6D6D986D6D31
S315080044706D39A76D6D6D6D6D6D6D6D6D6D6D6D6D58
S31508004480AC4C6D6D6D676D6D5FB1A277776D6D6DB7
S315080044906D6D6D6D6D6D6D6D6D6D6D6D6D6D6D6D3E
S315080044A06D6D6D6D6D6D6D6D6D6D6D6D6D6D6D6D2E
S315080044B06D6D6D6D7C00B0F5C06F65D00AD9B0F52D
S315080044C0E06F70D0B0F5F06F17D101A90020FFF7A3
S315080044D0BDFE2EE0B0F5A06F60D0B0F5B06F04D188
S315080044E001A90020FFF71AFD23E0B0F5806F20D15F
S315080044F001A90020FFF7ACFC1BE0B0F5D06F18D17E
S3150800450001A90020FFF700FE13E0B0F5186F4FD0A1
S31508004510B0F5206F04D101A90020FFF7A1FD08E03E
S31508004520B0F5106F05D101A90020FFF719FE00E0CC
S3150800453003D2019803B05DF804FBB0F5386F23D0B9
S31508004540B0F5406FF5D101A90020FFF7B5FCF0E7FB
S315080045501C4B1B6F03F00703013B032BE9D8DFE86D
S3150800456003F00B02050805230193E2E703230193F1
S31508004570DFE708230193DCE702230193D9E701A9C2
S31508004580002018F069FAD4E701A90020FFF742FDD8
S31508004590CFE701A90020FFF77FFECAE701A900209F
S315080045A0FFF704FDC5E701A90020FFF705FEC0E7F0
S315080045B001A90020FFF726FEBBE701A90020FFF7A7
S315080045C081FDB6E700800050094B596E03F580530C
S315080045D04FF480325A66074A536A23F0010353623E
S315080045E011F4803F03D1044B4FF480325A6670476A
S315080045F00080005000C0075000A0005038B504469F
S315080046008020FFF705FF032800F0B580604B4FF4C4
S3150800461080125A665F4B45F60E02C3F8802003F5F2
S3150800462080524FF0A061916203F500534FF4803237
S315080046309A62584B9B6D13F4803FFAD1554B9B6D8C
S3150800464013F0804FFAD1226863681B0543EA0263B8
S31508004650227B43EA0243627B43EA0233A27B43EAB4
S315080046608213E27B13434B4D2B61AB6903F0004386
S31508004670226943EA8263626943EA0263227E43EA65
S315080046800243627E43EA0223A27E1343AB614FF4E0
S3150800469000624FF44061404818F0FCF92B6A23F099
S315080046A00F03E269002A46D111460B43E17E43EA2D
S315080046B081031A43374B1A62E369002B3DD1354A09
S315080046C0916A364B0B4094F8201043EA411394F84C
S315080046D0211043EA011394F8241043EAC10343F472
S315080046E0803393622B4B9A6D2D4B9343FAD1294A0B
S315080046F002F580514FF080738B62136923F47003BF
S31508004700A06843EA005313614FF000438B6194F8A5
S3150800471022301BB9234B4FF080729A6294F82330EB
S3150800472013BB204B4FF480329A621A4B9B6D13F0E1
S31508004730804FFAD118E00821B7E7022B1CD0154A9A
S31508004740916A164B0B4094F8201043EA411394F8EB
S31508004750221043EA016394F8241043EAC10394F84B
S31508004760231043EA0143936294F825301BB1094BA1
S315080047700D4AC3F8802038BD064B00221A619A619B
S315080047804FF408524FF47F41084818F083F9D6E7EA
S31508004790009000500040005A3840005AC7FFFEFEFD
S315080047A0030001000060005AF1A7FFFF3440005AD9
S315080047B0014B93F900007047684F002010B4437806
S315080047C04F2B28BF4F231A461C4B4FF4000159663E
S315080047D003F5B8334FF4D151596203F580510224D9
S315080047E04C6003F5005301215960154B1B6913F4FE
S315080047F0803FFAD1037842EA0323114A536141689C
S3150800480083681B0143EA0123017B43EA4103417B99
S315080048100B439360817BC37B1B0143EA4113017CF5
S3150800482043EA4103417C0B435360837C1BB1134627
S315080048306FF4D1525A625DF8044B704700900050ED
S3150800484000000250014B1880704700BFF24E00204E
S31508004850014B1880704700BFF04E0020B0F5207F4E
S3150800486048D02DD8B0F5007F39D04CD810B1B0F566
S31508004870C07F24D110B54C1E18F01AF918F0FEFAAC
S31508004880FFF708FA204A136F23F4704343EA043308
S315080048901367FEF789FD1D4BD3F8843013F0100F0C
S315080048A0F9D11A4BD3F88410C1F38111C1F1020171
S315080048B018F0D9FA00F02CF8FFF79AFD10BD7047EA
S315080048C0B0F5607F0AD101390F4AD2F8803023F05B
S315080048D0300343EA0113C2F8803070477047013944
S315080048E0094AD2F8903023F0F85343EA0163C2F834
S315080048F0903070470139044A136F23F4806343EA02
S3150800490081231367704770470080005000400050AD
S3150800491008B54FF4C07018F0D2F8054B984205D97F
S3150800492002214FF42070FFF799FF08BD0121F8E72F
S3150800493080F0FA0210B50446FEF736FD0C4BD3F8A4
S31508004940843013F0100FF9D1094BD3F88410C1F352
S315080049508111C1F1020118F086FA0121002000F048
S315080049604DF914B9FFF744FD10BDFFF7D1FFF9E77C
S315080049700040005070B50446FFF7E8F90546364B87
S315080049804FF4C0225A6603F598335B68012B29D089
S315080049908020FFF73DFD05282DD025F040752F4BCB
S315080049A09C422FD02E4B9C422FD0FEF7D7FC0646B2
S315080049B084422DD82B4BDB6813F0060FFAD1294B0E
S315080049C09A689D609B686B4013F4F81F25D0254BA9
S315080049D09A6034468020FFF71BFD052821D0B44293
S315080049E035D970BD204B01225A60204B5B6813F005
S315080049F0020FFAD1CCE718F05BF818F03FFAFFF788
S31508004A0049F9CAE745F00075CFE745F08075CCE768
S31508004A100121204600F0F2F8CCE72046FEF7A4FC78
S31508004A20D8E7FEF7C1FC124BD3F8843013F0100F09
S31508004A30F9D10F4BD3F88410C1F38111C1F10201EA
S31508004A4018F011FAFFF764FFFFF7D2FCC7E7012158
S31508004A50002000F0D3F8C4E70090005040420F0051
S31508004A6080841E000000015000E0015000C0015083
S31508004A700040005010B50446FFF714F90A4B4FF4EE
S31508004A8000225A6620F04070084A944206D0084A26
S31508004A90944206D04FF0B442906010BD40F00070CA
S31508004AA0F8E740F08070F5E70090005040420F00AC
S31508004AB080841E00044A536F23F44073417843EA06
S31508004AC001235367704700BF0040005010B50446E5
S31508004AD00D4A136943F00403136104F08FF918F0C3
S31508004AE0E0F90A4B5B6E13F0806F03D0084B094A56
S31508004AF0C3F8202430BF18F0D5F904F0BBF904B187
S31508004B0010BDFEF751FCFBE700ED00E00080005009
S31508004B1000E003500000FF0F10B504460B4A136966
S31508004B2043F0040313610A4B5B6E13F0806F03D0E6
S31508004B30084B094AC3F8202404F060F930BF04F092
S31508004B4099F904B110BDFEF72FFCFBE700ED00E074
S31508004B500080005000E003500000FF0F034AD36EA8
S31508004B6023F0300301790B43D366704700400050A9
S31508004B70F8B50446204BD3F8843013F0100FF9D15A
S31508004B801D4BD3F88430C3F381139C422DD0FEF716
S31508004B90F1FB0646012C11D017F04AFE0546164FC2
S31508004BA007F500534FF000725A66204618F07DF953
S31508004BB0621E4FF4806393403B6706E0012118F0BC
S31508004BC052F9E9E70C4BD3F884300B4B5B6E13F0C4
S31508004BD0007F05D1084BD3F8843013F0200FF1D0AD
S31508004BE0284617F029FE022C00D0F8BD00213046D1
S31508004BF018F039F9F9E700BF0040005010B50C4627
S31508004C00034650B1094A127812B1094A934208D9A3
S31508004C1021460220FFF7ACFF10BDFEF7ABFB0346AB
S31508004C20F0E721460120FFF7A3FFF5E7BC2E002099
S31508004C30005A620208B50278034B1A700121002057
S31508004C40FFF7DCFF08BD00BFBC2E002038B52F4B90
S31508004C504FF000425A6603F50B235C6C04F001041E
S31508004C604AF6CD321A64E8B9294B5B6B13F0010397
S31508004C70FAD1274A556815F0010539D002F50052D0
S31508004C80012151601A462249096B11F0010F04D11E
S31508004C9020498A4201D80132F5E71E498A422FD8AF
S31508004CA01D4625E000231A4A126B12F0080F04D09D
S31508004CB0184A934201D80133F5E7164A934221D898
S31508004CC0134B03F500522021916203F5805301220C
S31508004CD05A60002300E001330D4A926A12F0200F51
S31508004CE002D10C4A9342F6D90A4A93420CD80025B7
S31508004CF014B1074B084A1A641CF060FD284638BDF3
S31508004D000725F5E70725F3E70725F1E700900050A3
S31508004D10004009503F420F003254FFFF10B51A4BAE
S31508004D204FF000425A6603F50B235C6C04F001044D
S31508004D304AF6CD321A6443785B0043F00103134AFE
S31508004D40D363134B5B6B13F00B0FFAD1104A5368FE
S31508004D5023F4F873817843EA01135360C1784379E1
S31508004D6043EA012393600179837943EA01231361B6
S31508004D700078FFF76BFF14B1054B064A1A641CF05E
S31508004D801DFD012010BD00BF0090005000400050DE
S31508004D90004009503254FFFF10B50F2800D90F20E4
S31508004DA0124B5C6E03F580534FF000425A6603F5CA
S31508004DB00B235A6C02F001024AF6CD3119640C4BEA
S31508004DC05B6B13F0800FFAD109490B6A23F00F03C6
S31508004DD003430B620AB1074A0A64002C03DB064B3D
S31508004DE04FF000425A661CF0E9FC10BD00800050E6
S31508004DF0004009503254FFFF00A0005010B5134B75
S31508004E005C6E03F580534FF000425A6603F50B2398
S31508004E105A6C02F001024AF6CD3119640C4B5B6BF1
S31508004E2013F0800FFAD10A490B6A23F4F85343EAC0
S31508004E3000230B620AB1074A0A64002C03DB064BFF
S31508004E404FF000425A661CF0B9FC10BD00800050B5
S31508004E50004009503254FFFF00A00050084B98420A
S31508004E600AD0084B984209D003F58043984201D0EE
S31508004E7000207047582070475620704757207047C3
S31508004E800000015B00000A5010B5044618F00EF841
S31508004E90042307E004F5805304221A6104F500533D
S31508004EA01A610B46591E002BF4D1202323610023D7
S31508004EB0E360A36041F202026261A3614FF4A0229B
S31508004EC06262E3612362A362E3626363236504F5B6
S31508004ED000520249D164236310BD00BFFF3F0D0392
S31508004EE0F8B5044615460846E1B1A36813F0010F64
S31508004EF034D06668B0FBF5F0451E16F001062BD0D7
S31508004F00636D13F0280FFBD1A36C13F0030F0FD1B9
S31508004F10A36C13F0010F1BD1A36C13F0020F19D168
S31508004F20002706E02046FFF799FF17F0C8FDDCE7E3
S31508004F300527204617F0BAFF236923F07F4343EA83
S31508004F400563236146B33946204617F0CEFF23E0B2
S31508004F500927EEE70627ECE70027EDE76368A3686D
S31508004F6003F0E003402B1DD017D9602B1ED0802BF1
S31508004F7012D10123400105FB03F3B0FBF3F02038FF
S31508004F800B4A02EAC002636D13F0010FFBD12263DC
S31508004F90636D13F0010FFBD1F8BD2BB1202BFBD1AC
S31508004FA00823E7E70623E5E71023E3E70423E1E719
S31508004FB0F8FF7F0070B504460D461646436823B1D0
S31508004FC0636DC3F30B03002BFAD12046FFF75CFF92
S31508004FD0636923F44C5323F00F036A7B1343EA896E
S31508004FE013432A8A13436361A36823F0804323F09B
S31508004FF0E2032A7B13432A7E13436A691343A36099
S31508005000AB681BB9A36843F00043A360EA69002AAA
S3150800501070D0A168694B0B40117A43EA8153917AA3
S3150800502043EA4143918801F4C0410B43517843EA6E
S315080050308103517B43EAC103917B43EA01139278CA
S3150800504043EA8223A360E2685D4B1340EA6911696B
S315080050500B4351690B43917943EA8123D27943EA99
S315080050604223E360EB691B78012B01D0032B03D1A4
S31508005070E36843F00403E360EB691B78023BDBB2A9
S31508005080012B51D94F4B9C426BD04F4B9C426AD057
S3150800509003F580439C4262D04FF0FF3303F59373C8
S315080050A05B0103F1A04303F5703302225A60EB69F2
S315080050B05A7A04F580539A62EB695B7A1BB1E36806
S315080050C043F40063E360EB69DB7A63B1E36843F4B6
S315080050D00043E3603B4B9C4247D03B4B9C424BD042
S315080050E03A4B9C424FD0636A23F00303EA69D27BAA
S315080050F0134363623EB196F82030002B4AD004F57C
S31508005100805301221A620521204617F0EEFEAA688E
S31508005110002A4ED12978204617F0E7FEA36CDB4318
S3150800512013F4405FFAD170BD264B9C4213D0264B30
S315080051309C4212D003F580439C420AD04FF0FF33BD
S31508005140A6335B0103F1A04303F5703302225A60CC
S31508005150ADE70223F4E70023F2E70123F0E7022391
S315080051609CE700239AE7012398E7EB691B7B03F08A
S315080051700F03174A5366B0E7EB691B7B03F00F036F
S31508005180134A1367ACE7EB691B7B03F00F03104A5E
S31508005190D367A8E7E36923F0090396F822201343A7
S315080051A096F82120134343F0010304F58052D36196
S315080051B0A9E769682046FFF793FEABE7E39BBDFFC7
S315080051C0FFF9F0870000015B00000A5000400A5012
S315080051D000900350F8B504460D461E4617463AB1E8
S315080051E0FBB101228A4000EB400109011D4B5A50D0
S315080051F0072D1ED8A90004EB44031B0107FA01F288
S315080052000F2000FA01F11848184417F0A5FE3FB917
S31508005210FEB10122AA4004EB44042401114B1A51A1
S31508005220F8BD01228A4000EB400109010F4B5A5094
S31508005230DEE7A5F108039B0004EB440C4FEA0C1CBF
S3150800524007FA03F20F2199400948604417F084FED3
S31508005250DDE70122AA4004EB44042401034B1A515A
S31508005260DEE700BF40D0035034C0035040E003508F
S315080052703CC0035010B5162019F058FA074B002405
S315080052805C65FF229A625C6021462020FFF792F84F
S3150800529021462120FFF78EF810BD00BF00000450FC
S315080052A029B9044A012303FA00F010607047024A3C
S315080052B0F8E700BF401004504020045010B50446DB
S315080052C001212020FFF776F801212120FFF772F847
S315080052D0114B01225A60227812069A606178A278E8
S315080052E042EA01429A61FF229A6200229A631A648C
S315080052F04FF000425A6503F500534FF0FF321A6526
S31508005300162002F09DFAE178162019F017FA1620F1
S3150800531019F010FA10BD00BF0000045070B50C4615
S31508005320C3B201259D40234901F500531D6583003D
S3150800533003F1A04303F5882326685E60637B00EBD0
S31508005340400C01EB0C1CCCF8603094F80AE0E37AC8
S315080053501B0543EA0E4394F80CE043EA4E53CCF897
S315080053605C3022F00302CCF8702017F070FA124B6A
S315080053705D65237A1BB10F4A136C2B431364637A5A
S315080053801BB10C4A936B2B4393632379A27942EAA8
S315080053900342084B03F500518A6194F805C0E27987
S315080053A042EA0C4203F58054A2614D639D6417F0EE
S315080053B054FA70BD000004500010045010B5C0B275
S315080053C00124844017F043FA044B5A6D22EA04027A
S315080053D05A659C6217F041FA10BD00BF00000450E0
S315080053E010B5C0B20124844017F031FA084BDB6AC5
S315080053F0234205D1064B5B6B9C4306D0002400E094
S31508005400002417F02AFA204610BD0124F9E700BF48
S3150800541000000450064B4FF480329A6603F51C339D
S3150800542041F67132DA6303F500530122DA607047F8
S3150800543000900050074B41F67132DA6303F50052CB
S315080054400121D1600022DA63A3F518334FF48032C4
S315080054509A6670470000035070B50446C2F30626E4
S3150800546002F0070241B942EA062242F44022063413
S31508005470094B43F8242070BD1146304617F0A9FDA4
S315080054800546304617F077FD45EA00251234024BEB
S3150800549043F82450EFE700BF00800350054B186817
S315080054A0B0F1FF3F04D1044BD3F89400014B1860C8
S315080054B0704700BFE84D002000400050074B4FF4EE
S315080054C080325A6603F5E6239B69C3F38512827018
S315080054D003F03F0242701B0B0370704700900050A8
S315080054E0014B986CD96C70470080E00F034B9B68A2
S315080054F00A3303F01F030120984070470080E00F2D
